{
  "contractName": "escrow",
  "abi": [
    {
      "inputs": [
        {
          "internalType": "address payable",
          "name": "addr",
          "type": "address"
        }
      ],
      "name": "transferEth",
      "outputs": [],
      "stateMutability": "payable",
      "type": "function"
    }
  ],
  "bytecode": "0x608060405234801561001057600080fd5b5060e18061001f6000396000f3fe608060405260043610601c5760003560e01c806330df47af146021575b600080fd5b606060048036036020811015603557600080fd5b81019080803573ffffffffffffffffffffffffffffffffffffffff1690602001909291905050506062565b005b8073ffffffffffffffffffffffffffffffffffffffff166108fc349081150290604051600060405180830381858888f1935050505015801560a7573d6000803e3d6000fd5b505056fea2646970667358221220b1fdacea68a713a25bda9068a211eccf5876b48e568dff30bf4b208a4cb47ec464736f6c63430006000033",
  "source": "// SPDX-License-Identifier: MIT\r\npragma solidity 0.6.0;\r\n\r\n// Defining a Contract\r\ncontract escrow {\r\n\r\n    function transferEth(address payable addr) public payable {\r\n        addr.transfer(msg.value);\r\n    }\r\n\r\n}\r\n",
  "sourcePath": "D:/Drive Stuff/Projects/escrowfinale/contracts/escrow.sol",
  "compiler": {
    "name": "solc",
    "version": "0.6.0+commit.26b70077.Emscripten.clang"
  },
  "schemaVersion": "3.4.1",
  "updatedAt": "2021-08-19T15:09:55.597Z",
  "devdoc": {
    "methods": {}
  },
  "userdoc": {
    "methods": {}
  }
}