{
  "contractName": "escrowt",
  "abi": [
    {
      "inputs": [],
      "name": "deposit",
      "outputs": [],
      "stateMutability": "payable",
      "type": "function"
    },
    {
      "inputs": [],
      "name": "withdraw",
      "outputs": [],
      "stateMutability": "payable",
      "type": "function"
    }
  ],
  "bytecode": "0x608060405234801561001057600080fd5b5060bb8061001f6000396000f3fe60806040526004361060265760003560e01c80633ccfd60b14602b578063d0e30db0146033575b600080fd5b6031603b565b005b60396083565b005b3373ffffffffffffffffffffffffffffffffffffffff166108fc479081150290604051600060405180830381858888f193505050501580156080573d6000803e3d6000fd5b50565b56fea2646970667358221220c43238ef1ff39e72a380f6f2a547b8e2537dbfe641a943af230431f999ba03f164736f6c63430006000033",
  "source": "// SPDX-License-Identifier: MIT\r\npragma solidity 0.6.0;\r\n\r\n// Defining a Contract\r\ncontract escrowt {\r\n    address payable addr1;\r\n    address payable addr2;\r\n\r\n    function deposit() public payable {}\r\n\r\n\r\n    function withdraw() public payable {\r\n        payable(msg.sender).transfer(address(this).balance);\r\n    }\r\n}\r\n",
  "sourcePath": "D:/Drive Stuff/Projects/escrowfinale/contracts/escrow.sol",
  "compiler": {
    "name": "solc",
    "version": "0.6.0+commit.26b70077.Emscripten.clang"
  },
  "schemaVersion": "3.4.1",
  "updatedAt": "2021-08-19T07:34:37.243Z",
  "devdoc": {
    "methods": {}
  },
  "userdoc": {
    "methods": {}
  }
}